{
  "_format": "hh-sol-artifact-1",
  "contractName": "SoulBoundFarmerNFT",
  "sourceName": "contracts/SoulBoundFarmerNFT.sol",
  "abi": [
    {
      "inputs": [],
      "stateMutability": "nonpayable",
      "type": "constructor"
    },
    {
      "inputs": [
        {
          "internalType": "address",
          "name": "sender",
          "type": "address"
        },
        {
          "internalType": "uint256",
          "name": "tokenId",
          "type": "uint256"
        },
        {
          "internalType": "address",
          "name": "owner",
          "type": "address"
        }
      ],
      "name": "ERC721IncorrectOwner",
      "type": "error"
    },
    {
      "inputs": [
        {
          "internalType": "address",
          "name": "operator",
          "type": "address"
        },
        {
          "internalType": "uint256",
          "name": "tokenId",
          "type": "uint256"
        }
      ],
      "name": "ERC721InsufficientApproval",
      "type": "error"
    },
    {
      "inputs": [
        {
          "internalType": "address",
          "name": "approver",
          "type": "address"
        }
      ],
      "name": "ERC721InvalidApprover",
      "type": "error"
    },
    {
      "inputs": [
        {
          "internalType": "address",
          "name": "operator",
          "type": "address"
        }
      ],
      "name": "ERC721InvalidOperator",
      "type": "error"
    },
    {
      "inputs": [
        {
          "internalType": "address",
          "name": "owner",
          "type": "address"
        }
      ],
      "name": "ERC721InvalidOwner",
      "type": "error"
    },
    {
      "inputs": [
        {
          "internalType": "address",
          "name": "receiver",
          "type": "address"
        }
      ],
      "name": "ERC721InvalidReceiver",
      "type": "error"
    },
    {
      "inputs": [
        {
          "internalType": "address",
          "name": "sender",
          "type": "address"
        }
      ],
      "name": "ERC721InvalidSender",
      "type": "error"
    },
    {
      "inputs": [
        {
          "internalType": "uint256",
          "name": "tokenId",
          "type": "uint256"
        }
      ],
      "name": "ERC721NonexistentToken",
      "type": "error"
    },
    {
      "anonymous": false,
      "inputs": [
        {
          "indexed": true,
          "internalType": "address",
          "name": "owner",
          "type": "address"
        },
        {
          "indexed": true,
          "internalType": "address",
          "name": "approved",
          "type": "address"
        },
        {
          "indexed": true,
          "internalType": "uint256",
          "name": "tokenId",
          "type": "uint256"
        }
      ],
      "name": "Approval",
      "type": "event"
    },
    {
      "anonymous": false,
      "inputs": [
        {
          "indexed": true,
          "internalType": "address",
          "name": "owner",
          "type": "address"
        },
        {
          "indexed": true,
          "internalType": "address",
          "name": "operator",
          "type": "address"
        },
        {
          "indexed": false,
          "internalType": "bool",
          "name": "approved",
          "type": "bool"
        }
      ],
      "name": "ApprovalForAll",
      "type": "event"
    },
    {
      "anonymous": false,
      "inputs": [
        {
          "indexed": true,
          "internalType": "uint256",
          "name": "farmerId",
          "type": "uint256"
        },
        {
          "indexed": true,
          "internalType": "address",
          "name": "owner",
          "type": "address"
        },
        {
          "indexed": false,
          "internalType": "string",
          "name": "subsidyType",
          "type": "string"
        }
      ],
      "name": "FarmerNFTMinted",
      "type": "event"
    },
    {
      "anonymous": false,
      "inputs": [
        {
          "indexed": true,
          "internalType": "address",
          "name": "from",
          "type": "address"
        },
        {
          "indexed": true,
          "internalType": "address",
          "name": "to",
          "type": "address"
        },
        {
          "indexed": true,
          "internalType": "uint256",
          "name": "tokenId",
          "type": "uint256"
        }
      ],
      "name": "Transfer",
      "type": "event"
    },
    {
      "inputs": [
        {
          "internalType": "uint256",
          "name": "",
          "type": "uint256"
        }
      ],
      "name": "allFarmers",
      "outputs": [
        {
          "internalType": "uint256",
          "name": "farmerId",
          "type": "uint256"
        },
        {
          "internalType": "string",
          "name": "subsidyType",
          "type": "string"
        },
        {
          "internalType": "uint256",
          "name": "subsidyAmount",
          "type": "uint256"
        },
        {
          "internalType": "uint256",
          "name": "issueDate",
          "type": "uint256"
        },
        {
          "internalType": "uint256",
          "name": "validityPeriod",
          "type": "uint256"
        },
        {
          "internalType": "string",
          "name": "governmentApprovalId",
          "type": "string"
        },
        {
          "internalType": "string",
          "name": "usageStatus",
          "type": "string"
        },
        {
          "internalType": "string",
          "name": "farmerSignature",
          "type": "string"
        },
        {
          "internalType": "string",
          "name": "governmentSignature",
          "type": "string"
        },
        {
          "internalType": "string",
          "name": "location",
          "type": "string"
        },
        {
          "internalType": "address",
          "name": "owner",
          "type": "address"
        }
      ],
      "stateMutability": "view",
      "type": "function"
    },
    {
      "inputs": [
        {
          "internalType": "address",
          "name": "to",
          "type": "address"
        },
        {
          "internalType": "uint256",
          "name": "tokenId",
          "type": "uint256"
        }
      ],
      "name": "approve",
      "outputs": [],
      "stateMutability": "nonpayable",
      "type": "function"
    },
    {
      "inputs": [
        {
          "internalType": "address",
          "name": "owner",
          "type": "address"
        }
      ],
      "name": "balanceOf",
      "outputs": [
        {
          "internalType": "uint256",
          "name": "",
          "type": "uint256"
        }
      ],
      "stateMutability": "view",
      "type": "function"
    },
    {
      "inputs": [
        {
          "internalType": "address",
          "name": "from",
          "type": "address"
        },
        {
          "internalType": "address",
          "name": "to",
          "type": "address"
        },
        {
          "internalType": "uint256",
          "name": "farmerId",
          "type": "uint256"
        }
      ],
      "name": "customTransfer",
      "outputs": [],
      "stateMutability": "nonpayable",
      "type": "function"
    },
    {
      "inputs": [
        {
          "internalType": "uint256",
          "name": "farmerId",
          "type": "uint256"
        }
      ],
      "name": "downloadFarmerNFTData",
      "outputs": [
        {
          "internalType": "string",
          "name": "",
          "type": "string"
        }
      ],
      "stateMutability": "view",
      "type": "function"
    },
    {
      "inputs": [
        {
          "internalType": "address",
          "name": "",
          "type": "address"
        },
        {
          "internalType": "uint256",
          "name": "",
          "type": "uint256"
        }
      ],
      "name": "farmerRecords",
      "outputs": [
        {
          "internalType": "uint256",
          "name": "farmerId",
          "type": "uint256"
        },
        {
          "internalType": "string",
          "name": "subsidyType",
          "type": "string"
        },
        {
          "internalType": "uint256",
          "name": "subsidyAmount",
          "type": "uint256"
        },
        {
          "internalType": "uint256",
          "name": "issueDate",
          "type": "uint256"
        },
        {
          "internalType": "uint256",
          "name": "validityPeriod",
          "type": "uint256"
        },
        {
          "internalType": "string",
          "name": "governmentApprovalId",
          "type": "string"
        },
        {
          "internalType": "string",
          "name": "usageStatus",
          "type": "string"
        },
        {
          "internalType": "string",
          "name": "farmerSignature",
          "type": "string"
        },
        {
          "internalType": "string",
          "name": "governmentSignature",
          "type": "string"
        },
        {
          "internalType": "string",
          "name": "location",
          "type": "string"
        },
        {
          "internalType": "address",
          "name": "owner",
          "type": "address"
        }
      ],
      "stateMutability": "view",
      "type": "function"
    },
    {
      "inputs": [
        {
          "internalType": "uint256",
          "name": "tokenId",
          "type": "uint256"
        }
      ],
      "name": "getApproved",
      "outputs": [
        {
          "internalType": "address",
          "name": "",
          "type": "address"
        }
      ],
      "stateMutability": "view",
      "type": "function"
    },
    {
      "inputs": [
        {
          "internalType": "uint256",
          "name": "farmerId",
          "type": "uint256"
        }
      ],
      "name": "getFarmerNFT",
      "outputs": [
        {
          "components": [
            {
              "internalType": "uint256",
              "name": "farmerId",
              "type": "uint256"
            },
            {
              "internalType": "string",
              "name": "subsidyType",
              "type": "string"
            },
            {
              "internalType": "uint256",
              "name": "subsidyAmount",
              "type": "uint256"
            },
            {
              "internalType": "uint256",
              "name": "issueDate",
              "type": "uint256"
            },
            {
              "internalType": "uint256",
              "name": "validityPeriod",
              "type": "uint256"
            },
            {
              "internalType": "string",
              "name": "governmentApprovalId",
              "type": "string"
            },
            {
              "internalType": "string",
              "name": "usageStatus",
              "type": "string"
            },
            {
              "internalType": "string",
              "name": "farmerSignature",
              "type": "string"
            },
            {
              "internalType": "string",
              "name": "governmentSignature",
              "type": "string"
            },
            {
              "internalType": "string",
              "name": "location",
              "type": "string"
            },
            {
              "internalType": "address",
              "name": "owner",
              "type": "address"
            }
          ],
          "internalType": "struct SoulBoundFarmerNFT.Farmer",
          "name": "",
          "type": "tuple"
        }
      ],
      "stateMutability": "view",
      "type": "function"
    },
    {
      "inputs": [
        {
          "internalType": "address",
          "name": "owner",
          "type": "address"
        },
        {
          "internalType": "address",
          "name": "operator",
          "type": "address"
        }
      ],
      "name": "isApprovedForAll",
      "outputs": [
        {
          "internalType": "bool",
          "name": "",
          "type": "bool"
        }
      ],
      "stateMutability": "view",
      "type": "function"
    },
    {
      "inputs": [
        {
          "internalType": "address",
          "name": "recipient",
          "type": "address"
        },
        {
          "internalType": "string",
          "name": "subsidyType",
          "type": "string"
        },
        {
          "internalType": "uint256",
          "name": "subsidyAmount",
          "type": "uint256"
        },
        {
          "internalType": "uint256",
          "name": "issueDate",
          "type": "uint256"
        },
        {
          "internalType": "uint256",
          "name": "validityPeriod",
          "type": "uint256"
        },
        {
          "internalType": "string",
          "name": "governmentApprovalId",
          "type": "string"
        },
        {
          "internalType": "string",
          "name": "usageStatus",
          "type": "string"
        },
        {
          "internalType": "string",
          "name": "farmerSignature",
          "type": "string"
        },
        {
          "internalType": "string",
          "name": "governmentSignature",
          "type": "string"
        },
        {
          "internalType": "string",
          "name": "location",
          "type": "string"
        }
      ],
      "name": "mintFarmerNFT",
      "outputs": [
        {
          "internalType": "uint256",
          "name": "",
          "type": "uint256"
        }
      ],
      "stateMutability": "nonpayable",
      "type": "function"
    },
    {
      "inputs": [],
      "name": "name",
      "outputs": [
        {
          "internalType": "string",
          "name": "",
          "type": "string"
        }
      ],
      "stateMutability": "view",
      "type": "function"
    },
    {
      "inputs": [
        {
          "internalType": "uint256",
          "name": "tokenId",
          "type": "uint256"
        }
      ],
      "name": "ownerOf",
      "outputs": [
        {
          "internalType": "address",
          "name": "",
          "type": "address"
        }
      ],
      "stateMutability": "view",
      "type": "function"
    },
    {
      "inputs": [
        {
          "internalType": "address",
          "name": "from",
          "type": "address"
        },
        {
          "internalType": "address",
          "name": "to",
          "type": "address"
        },
        {
          "internalType": "uint256",
          "name": "tokenId",
          "type": "uint256"
        }
      ],
      "name": "safeTransferFrom",
      "outputs": [],
      "stateMutability": "nonpayable",
      "type": "function"
    },
    {
      "inputs": [
        {
          "internalType": "address",
          "name": "from",
          "type": "address"
        },
        {
          "internalType": "address",
          "name": "to",
          "type": "address"
        },
        {
          "internalType": "uint256",
          "name": "tokenId",
          "type": "uint256"
        },
        {
          "internalType": "bytes",
          "name": "data",
          "type": "bytes"
        }
      ],
      "name": "safeTransferFrom",
      "outputs": [],
      "stateMutability": "nonpayable",
      "type": "function"
    },
    {
      "inputs": [
        {
          "internalType": "address",
          "name": "operator",
          "type": "address"
        },
        {
          "internalType": "bool",
          "name": "approved",
          "type": "bool"
        }
      ],
      "name": "setApprovalForAll",
      "outputs": [],
      "stateMutability": "nonpayable",
      "type": "function"
    },
    {
      "inputs": [
        {
          "internalType": "bytes4",
          "name": "interfaceId",
          "type": "bytes4"
        }
      ],
      "name": "supportsInterface",
      "outputs": [
        {
          "internalType": "bool",
          "name": "",
          "type": "bool"
        }
      ],
      "stateMutability": "view",
      "type": "function"
    },
    {
      "inputs": [],
      "name": "symbol",
      "outputs": [
        {
          "internalType": "string",
          "name": "",
          "type": "string"
        }
      ],
      "stateMutability": "view",
      "type": "function"
    },
    {
      "inputs": [
        {
          "internalType": "uint256",
          "name": "tokenId",
          "type": "uint256"
        }
      ],
      "name": "tokenURI",
      "outputs": [
        {
          "internalType": "string",
          "name": "",
          "type": "string"
        }
      ],
      "stateMutability": "view",
      "type": "function"
    },
    {
      "inputs": [
        {
          "internalType": "address",
          "name": "from",
          "type": "address"
        },
        {
          "internalType": "address",
          "name": "to",
          "type": "address"
        },
        {
          "internalType": "uint256",
          "name": "tokenId",
          "type": "uint256"
        }
      ],
      "name": "transferFrom",
      "outputs": [],
      "stateMutability": "nonpayable",
      "type": "function"
    }
  ],
  "bytecode": "0x608060405234801561001057600080fd5b506040518060400160405280601281526020017f536f756c426f756e644661726d65724e465400000000000000000000000000008152506040518060400160405280600681526020017f5342464e46540000000000000000000000000000000000000000000000000000815250816000908161008c9190610335565b50806001908161009c9190610335565b50505033600760006101000a81548173ffffffffffffffffffffffffffffffffffffffff021916908373ffffffffffffffffffffffffffffffffffffffff160217905550610407565b600081519050919050565b7f4e487b7100000000000000000000000000000000000000000000000000000000600052604160045260246000fd5b7f4e487b7100000000000000000000000000000000000000000000000000000000600052602260045260246000fd5b6000600282049050600182168061016657607f821691505b6020821081036101795761017861011f565b5b50919050565b60008190508160005260206000209050919050565b60006020601f8301049050919050565b600082821b905092915050565b6000600883026101e17fffffffffffffffffffffffffffffffffffffffffffffffffffffffffffffffff826101a4565b6101eb86836101a4565b95508019841693508086168417925050509392505050565b6000819050919050565b6000819050919050565b600061023261022d61022884610203565b61020d565b610203565b9050919050565b6000819050919050565b61024c83610217565b61026061025882610239565b8484546101b1565b825550505050565b600090565b610275610268565b610280818484610243565b505050565b5b818110156102a45761029960008261026d565b600181019050610286565b5050565b601f8211156102e9576102ba8161017f565b6102c384610194565b810160208510156102d2578190505b6102e66102de85610194565b830182610285565b50505b505050565b600082821c905092915050565b600061030c600019846008026102ee565b1980831691505092915050565b600061032583836102fb565b9150826002028217905092915050565b61033e826100e5565b67ffffffffffffffff811115610357576103566100f0565b5b610361825461014e565b61036c8282856102a8565b600060209050601f83116001811461039f576000841561038d578287015190505b6103978582610319565b8655506103ff565b601f1984166103ad8661017f565b60005b828110156103d5578489015182556001820191506020850194506020810190506103b0565b868310156103f257848901516103ee601f8916826102fb565b8355505b6001600288020188555050505b505050505050565b61495c806104166000396000f3fe608060405234801561001057600080fd5b50600436106101215760003560e01c806395d89b41116100ad578063c87b56dd11610071578063c87b56dd14610334578063d51a0eff14610364578063e7efd6f014610394578063e985e9c5146103c4578063f48401ba146103f457610121565b806395d89b4114610274578063a22cb46514610292578063b88d4fde146102ae578063c1a7722b146102ca578063c731433f1461030457610121565b806323b872dd116100f457806323b872dd146101c057806342842e0e146101dc5780634f8f4dab146101f85780636352211e1461021457806370a082311461024457610121565b806301ffc9a71461012657806306fdde0314610156578063081812fc14610174578063095ea7b3146101a4575b600080fd5b610140600480360381019061013b9190613157565b61042e565b60405161014d919061319f565b60405180910390f35b61015e610510565b60405161016b919061324a565b60405180910390f35b61018e600480360381019061018991906132a2565b6105a2565b60405161019b9190613310565b60405180910390f35b6101be60048036038101906101b99190613357565b6105be565b005b6101da60048036038101906101d59190613397565b6105d4565b005b6101f660048036038101906101f19190613397565b6106d6565b005b610212600480360381019061020d9190613397565b6106f6565b005b61022e600480360381019061022991906132a2565b610767565b60405161023b9190613310565b60405180910390f35b61025e600480360381019061025991906133ea565b610779565b60405161026b9190613426565b60405180910390f35b61027c610833565b604051610289919061324a565b60405180910390f35b6102ac60048036038101906102a7919061346d565b6108c5565b005b6102c860048036038101906102c391906135e2565b6108db565b005b6102e460048036038101906102df91906132a2565b610900565b6040516102fb9b9a99989796959493929190613665565b60405180910390f35b61031e600480360381019061031991906137db565b610cba565b60405161032b9190613426565b60405180910390f35b61034e600480360381019061034991906132a2565b611085565b60405161035b919061324a565b60405180910390f35b61037e600480360381019061037991906132a2565b6110ee565b60405161038b919061324a565b60405180910390f35b6103ae60048036038101906103a991906132a2565b6115ff565b6040516103bb9190613adc565b60405180910390f35b6103de60048036038101906103d99190613afe565b611a86565b6040516103eb919061319f565b60405180910390f35b61040e60048036038101906104099190613357565b611b1a565b6040516104259b9a99989796959493929190613665565b60405180910390f35b60007f80ac58cd000000000000000000000000000000000000000000000000000000007bffffffffffffffffffffffffffffffffffffffffffffffffffffffff1916827bffffffffffffffffffffffffffffffffffffffffffffffffffffffff191614806104f957507f5b5e139f000000000000000000000000000000000000000000000000000000007bffffffffffffffffffffffffffffffffffffffffffffffffffffffff1916827bffffffffffffffffffffffffffffffffffffffffffffffffffffffff1916145b80610509575061050882611ee1565b5b9050919050565b60606000805461051f90613b6d565b80601f016020809104026020016040519081016040528092919081815260200182805461054b90613b6d565b80156105985780601f1061056d57610100808354040283529160200191610598565b820191906000526020600020905b81548152906001019060200180831161057b57829003601f168201915b5050505050905090565b60006105ad82611f4b565b506105b782611fd3565b9050919050565b6105d082826105cb612010565b612018565b5050565b600073ffffffffffffffffffffffffffffffffffffffff168273ffffffffffffffffffffffffffffffffffffffff16036106465760006040517f64a0ae9200000000000000000000000000000000000000000000000000000000815260040161063d9190613310565b60405180910390fd5b600061065a8383610655612010565b61202a565b90508373ffffffffffffffffffffffffffffffffffffffff168173ffffffffffffffffffffffffffffffffffffffff16146106d0578382826040517f64283d7b0000000000000000000000000000000000000000000000000000000081526004016106c793929190613b9e565b60405180910390fd5b50505050565b6106f1838383604051806020016040528060008152506108db565b505050565b6008600082815260200190815260200160002060009054906101000a900460ff1615610757576040517f08c379a000000000000000000000000000000000000000000000000000000000815260040161074e90613c47565b60405180910390fd5b6107628383836105d4565b505050565b600061077282611f4b565b9050919050565b60008073ffffffffffffffffffffffffffffffffffffffff168273ffffffffffffffffffffffffffffffffffffffff16036107ec5760006040517f89c62b640000000000000000000000000000000000000000000000000000000081526004016107e39190613310565b60405180910390fd5b600360008373ffffffffffffffffffffffffffffffffffffffff1673ffffffffffffffffffffffffffffffffffffffff168152602001908152602001600020549050919050565b60606001805461084290613b6d565b80601f016020809104026020016040519081016040528092919081815260200182805461086e90613b6d565b80156108bb5780601f10610890576101008083540402835291602001916108bb565b820191906000526020600020905b81548152906001019060200180831161089e57829003601f168201915b5050505050905090565b6108d76108d0612010565b8383612244565b5050565b6108e68484846105d4565b6108fa6108f1612010565b858585856123b3565b50505050565b600a818154811061091057600080fd5b90600052602060002090600b020160009150905080600001549080600101805461093990613b6d565b80601f016020809104026020016040519081016040528092919081815260200182805461096590613b6d565b80156109b25780601f10610987576101008083540402835291602001916109b2565b820191906000526020600020905b81548152906001019060200180831161099557829003601f168201915b5050505050908060020154908060030154908060040154908060050180546109d990613b6d565b80601f0160208091040260200160405190810160405280929190818152602001828054610a0590613b6d565b8015610a525780601f10610a2757610100808354040283529160200191610a52565b820191906000526020600020905b815481529060010190602001808311610a3557829003601f168201915b505050505090806006018054610a6790613b6d565b80601f0160208091040260200160405190810160405280929190818152602001828054610a9390613b6d565b8015610ae05780601f10610ab557610100808354040283529160200191610ae0565b820191906000526020600020905b815481529060010190602001808311610ac357829003601f168201915b505050505090806007018054610af590613b6d565b80601f0160208091040260200160405190810160405280929190818152602001828054610b2190613b6d565b8015610b6e5780601f10610b4357610100808354040283529160200191610b6e565b820191906000526020600020905b815481529060010190602001808311610b5157829003601f168201915b505050505090806008018054610b8390613b6d565b80601f0160208091040260200160405190810160405280929190818152602001828054610baf90613b6d565b8015610bfc5780601f10610bd157610100808354040283529160200191610bfc565b820191906000526020600020905b815481529060010190602001808311610bdf57829003601f168201915b505050505090806009018054610c1190613b6d565b80601f0160208091040260200160405190810160405280929190818152602001828054610c3d90613b6d565b8015610c8a5780601f10610c5f57610100808354040283529160200191610c8a565b820191906000526020600020905b815481529060010190602001808311610c6d57829003601f168201915b50505050509080600a0160009054906101000a900473ffffffffffffffffffffffffffffffffffffffff1690508b565b60008060066000815480929190610cd090613c96565b919050559050610ce08c82612564565b60016009600083815260200190815260200160002060006101000a81548160ff02191690831515021790555060006040518061016001604052808381526020018d81526020018c81526020018b81526020018a81526020018981526020018881526020018781526020018681526020018581526020018e73ffffffffffffffffffffffffffffffffffffffff168152509050600a8190806001815401808255809150506001900390600052602060002090600b0201600090919091909150600082015181600001556020820151816001019081610dbd9190613e8a565b5060408201518160020155606082015181600301556080820151816004015560a0820151816005019081610df19190613e8a565b5060c0820151816006019081610e079190613e8a565b5060e0820151816007019081610e1d9190613e8a565b50610100820151816008019081610e349190613e8a565b50610120820151816009019081610e4b9190613e8a565b5061014082015181600a0160006101000a81548173ffffffffffffffffffffffffffffffffffffffff021916908373ffffffffffffffffffffffffffffffffffffffff1602179055505050600b60008e73ffffffffffffffffffffffffffffffffffffffff1673ffffffffffffffffffffffffffffffffffffffff1681526020019081526020016000208190806001815401808255809150506001900390600052602060002090600b0201600090919091909150600082015181600001556020820151816001019081610f1e9190613e8a565b5060408201518160020155606082015181600301556080820151816004015560a0820151816005019081610f529190613e8a565b5060c0820151816006019081610f689190613e8a565b5060e0820151816007019081610f7e9190613e8a565b50610100820151816008019081610f959190613e8a565b50610120820151816009019081610fac9190613e8a565b5061014082015181600a0160006101000a81548173ffffffffffffffffffffffffffffffffffffffff021916908373ffffffffffffffffffffffffffffffffffffffff160217905550505060016008600084815260200190815260200160002060006101000a81548160ff0219169083151502179055508c73ffffffffffffffffffffffffffffffffffffffff16827f90a079b12413cc443f24f22411b63d1a15998cdc95e305a3bd5856b5d6ca3d818e60405161106a919061324a565b60405180910390a381925050509a9950505050505050505050565b606061109082611f4b565b50600061109b61265d565b905060008151116110bb57604051806020016040528060008152506110e6565b806110c584612674565b6040516020016110d6929190613f98565b6040516020818303038152906040525b915050919050565b60606009600083815260200190815260200160002060009054906101000a900460ff16611150576040517f08c379a000000000000000000000000000000000000000000000000000000000815260040161114790614008565b60405180910390fd5b6000600a838154811061116657611165614028565b5b90600052602060002090600b0201604051806101600160405290816000820154815260200160018201805461119a90613b6d565b80601f01602080910402602001604051908101604052809291908181526020018280546111c690613b6d565b80156112135780601f106111e857610100808354040283529160200191611213565b820191906000526020600020905b8154815290600101906020018083116111f657829003601f168201915b5050505050815260200160028201548152602001600382015481526020016004820154815260200160058201805461124a90613b6d565b80601f016020809104026020016040519081016040528092919081815260200182805461127690613b6d565b80156112c35780601f10611298576101008083540402835291602001916112c3565b820191906000526020600020905b8154815290600101906020018083116112a657829003601f168201915b505050505081526020016006820180546112dc90613b6d565b80601f016020809104026020016040519081016040528092919081815260200182805461130890613b6d565b80156113555780601f1061132a57610100808354040283529160200191611355565b820191906000526020600020905b81548152906001019060200180831161133857829003601f168201915b5050505050815260200160078201805461136e90613b6d565b80601f016020809104026020016040519081016040528092919081815260200182805461139a90613b6d565b80156113e75780601f106113bc576101008083540402835291602001916113e7565b820191906000526020600020905b8154815290600101906020018083116113ca57829003601f168201915b5050505050815260200160088201805461140090613b6d565b80601f016020809104026020016040519081016040528092919081815260200182805461142c90613b6d565b80156114795780601f1061144e57610100808354040283529160200191611479565b820191906000526020600020905b81548152906001019060200180831161145c57829003601f168201915b5050505050815260200160098201805461149290613b6d565b80601f01602080910402602001604051908101604052809291908181526020018280546114be90613b6d565b801561150b5780601f106114e05761010080835404028352916020019161150b565b820191906000526020600020905b8154815290600101906020018083116114ee57829003601f168201915b50505050508152602001600a820160009054906101000a900473ffffffffffffffffffffffffffffffffffffffff1673ffffffffffffffffffffffffffffffffffffffff1673ffffffffffffffffffffffffffffffffffffffff168152505090506115798160000151612742565b816020015161158b8360400151612742565b6115988460600151612742565b6115a58560800151612742565b8560a001518660c001518760e001518861010001518961012001516115ce8b61014001516128ca565b6040516020016115e89b9a9998979695949392919061439b565b604051602081830303815290604052915050919050565b61160761307b565b6009600083815260200190815260200160002060009054906101000a900460ff16611667576040517f08c379a000000000000000000000000000000000000000000000000000000000815260040161165e90614008565b60405180910390fd5b600a828154811061167b5761167a614028565b5b90600052602060002090600b020160405180610160016040529081600082015481526020016001820180546116af90613b6d565b80601f01602080910402602001604051908101604052809291908181526020018280546116db90613b6d565b80156117285780601f106116fd57610100808354040283529160200191611728565b820191906000526020600020905b81548152906001019060200180831161170b57829003601f168201915b5050505050815260200160028201548152602001600382015481526020016004820154815260200160058201805461175f90613b6d565b80601f016020809104026020016040519081016040528092919081815260200182805461178b90613b6d565b80156117d85780601f106117ad576101008083540402835291602001916117d8565b820191906000526020600020905b8154815290600101906020018083116117bb57829003601f168201915b505050505081526020016006820180546117f190613b6d565b80601f016020809104026020016040519081016040528092919081815260200182805461181d90613b6d565b801561186a5780601f1061183f5761010080835404028352916020019161186a565b820191906000526020600020905b81548152906001019060200180831161184d57829003601f168201915b5050505050815260200160078201805461188390613b6d565b80601f01602080910402602001604051908101604052809291908181526020018280546118af90613b6d565b80156118fc5780601f106118d1576101008083540402835291602001916118fc565b820191906000526020600020905b8154815290600101906020018083116118df57829003601f168201915b5050505050815260200160088201805461191590613b6d565b80601f016020809104026020016040519081016040528092919081815260200182805461194190613b6d565b801561198e5780601f106119635761010080835404028352916020019161198e565b820191906000526020600020905b81548152906001019060200180831161197157829003601f168201915b505050505081526020016009820180546119a790613b6d565b80601f01602080910402602001604051908101604052809291908181526020018280546119d390613b6d565b8015611a205780601f106119f557610100808354040283529160200191611a20565b820191906000526020600020905b815481529060010190602001808311611a0357829003601f168201915b50505050508152602001600a820160009054906101000a900473ffffffffffffffffffffffffffffffffffffffff1673ffffffffffffffffffffffffffffffffffffffff1673ffffffffffffffffffffffffffffffffffffffff16815250509050919050565b6000600560008473ffffffffffffffffffffffffffffffffffffffff1673ffffffffffffffffffffffffffffffffffffffff16815260200190815260200160002060008373ffffffffffffffffffffffffffffffffffffffff1673ffffffffffffffffffffffffffffffffffffffff16815260200190815260200160002060009054906101000a900460ff16905092915050565b600b6020528160005260406000208181548110611b3657600080fd5b90600052602060002090600b020160009150915050806000015490806001018054611b6090613b6d565b80601f0160208091040260200160405190810160405280929190818152602001828054611b8c90613b6d565b8015611bd95780601f10611bae57610100808354040283529160200191611bd9565b820191906000526020600020905b815481529060010190602001808311611bbc57829003601f168201915b505050505090806002015490806003015490806004015490806005018054611c0090613b6d565b80601f0160208091040260200160405190810160405280929190818152602001828054611c2c90613b6d565b8015611c795780601f10611c4e57610100808354040283529160200191611c79565b820191906000526020600020905b815481529060010190602001808311611c5c57829003601f168201915b505050505090806006018054611c8e90613b6d565b80601f0160208091040260200160405190810160405280929190818152602001828054611cba90613b6d565b8015611d075780601f10611cdc57610100808354040283529160200191611d07565b820191906000526020600020905b815481529060010190602001808311611cea57829003601f168201915b505050505090806007018054611d1c90613b6d565b80601f0160208091040260200160405190810160405280929190818152602001828054611d4890613b6d565b8015611d955780601f10611d6a57610100808354040283529160200191611d95565b820191906000526020600020905b815481529060010190602001808311611d7857829003601f168201915b505050505090806008018054611daa90613b6d565b80601f0160208091040260200160405190810160405280929190818152602001828054611dd690613b6d565b8015611e235780601f10611df857610100808354040283529160200191611e23565b820191906000526020600020905b815481529060010190602001808311611e0657829003601f168201915b505050505090806009018054611e3890613b6d565b80601f0160208091040260200160405190810160405280929190818152602001828054611e6490613b6d565b8015611eb15780601f10611e8657610100808354040283529160200191611eb1565b820191906000526020600020905b815481529060010190602001808311611e9457829003601f168201915b50505050509080600a0160009054906101000a900473ffffffffffffffffffffffffffffffffffffffff1690508b565b60007f01ffc9a7000000000000000000000000000000000000000000000000000000007bffffffffffffffffffffffffffffffffffffffffffffffffffffffff1916827bffffffffffffffffffffffffffffffffffffffffffffffffffffffff1916149050919050565b600080611f5783612b5b565b9050600073ffffffffffffffffffffffffffffffffffffffff168173ffffffffffffffffffffffffffffffffffffffff1603611fca57826040517f7e273289000000000000000000000000000000000000000000000000000000008152600401611fc19190613426565b60405180910390fd5b80915050919050565b60006004600083815260200190815260200160002060009054906101000a900473ffffffffffffffffffffffffffffffffffffffff169050919050565b600033905090565b6120258383836001612b98565b505050565b60008061203684612b5b565b9050600073ffffffffffffffffffffffffffffffffffffffff168373ffffffffffffffffffffffffffffffffffffffff161461207857612077818486612d5d565b5b600073ffffffffffffffffffffffffffffffffffffffff168173ffffffffffffffffffffffffffffffffffffffff1614612109576120ba600085600080612b98565b6001600360008373ffffffffffffffffffffffffffffffffffffffff1673ffffffffffffffffffffffffffffffffffffffff168152602001908152602001600020600082825403925050819055505b600073ffffffffffffffffffffffffffffffffffffffff168573ffffffffffffffffffffffffffffffffffffffff161461218c576001600360008773ffffffffffffffffffffffffffffffffffffffff1673ffffffffffffffffffffffffffffffffffffffff168152602001908152602001600020600082825401925050819055505b846002600086815260200190815260200160002060006101000a81548173ffffffffffffffffffffffffffffffffffffffff021916908373ffffffffffffffffffffffffffffffffffffffff160217905550838573ffffffffffffffffffffffffffffffffffffffff168273ffffffffffffffffffffffffffffffffffffffff167fddf252ad1be2c89b69c2b068fc378daa952ba7f163c4a11628f55a4df523b3ef60405160405180910390a4809150509392505050565b600073ffffffffffffffffffffffffffffffffffffffff168273ffffffffffffffffffffffffffffffffffffffff16036122b557816040517f5b08ba180000000000000000000000000000000000000000000000000000000081526004016122ac9190613310565b60405180910390fd5b80600560008573ffffffffffffffffffffffffffffffffffffffff1673ffffffffffffffffffffffffffffffffffffffff16815260200190815260200160002060008473ffffffffffffffffffffffffffffffffffffffff1673ffffffffffffffffffffffffffffffffffffffff16815260200190815260200160002060006101000a81548160ff0219169083151502179055508173ffffffffffffffffffffffffffffffffffffffff168373ffffffffffffffffffffffffffffffffffffffff167f17307eab39ab6107e8899845ad3d59bd9653f200f220920489ca2b5937696c31836040516123a6919061319f565b60405180910390a3505050565b60008373ffffffffffffffffffffffffffffffffffffffff163b111561255d578273ffffffffffffffffffffffffffffffffffffffff1663150b7a02868685856040518563ffffffff1660e01b81526004016124129493929190614502565b6020604051808303816000875af192505050801561244e57506040513d601f19601f8201168201806040525081019061244b9190614563565b60015b6124d2573d806000811461247e576040519150601f19603f3d011682016040523d82523d6000602084013e612483565b606091505b5060008151036124ca57836040517f64a0ae920000000000000000000000000000000000000000000000000000000081526004016124c19190613310565b60405180910390fd5b805181602001fd5b63150b7a0260e01b7bffffffffffffffffffffffffffffffffffffffffffffffffffffffff1916817bffffffffffffffffffffffffffffffffffffffffffffffffffffffff19161461255b57836040517f64a0ae920000000000000000000000000000000000000000000000000000000081526004016125529190613310565b60405180910390fd5b505b5050505050565b600073ffffffffffffffffffffffffffffffffffffffff168273ffffffffffffffffffffffffffffffffffffffff16036125d65760006040517f64a0ae920000000000000000000000000000000000000000000000000000000081526004016125cd9190613310565b60405180910390fd5b60006125e48383600061202a565b9050600073ffffffffffffffffffffffffffffffffffffffff168173ffffffffffffffffffffffffffffffffffffffff16146126585760006040517f73c6ac6e00000000000000000000000000000000000000000000000000000000815260040161264f9190613310565b60405180910390fd5b505050565b606060405180602001604052806000815250905090565b60606000600161268384612e21565b01905060008167ffffffffffffffff8111156126a2576126a16134b7565b5b6040519080825280601f01601f1916602001820160405280156126d45781602001600182028036833780820191505090505b509050600082602001820190505b600115612737578080600190039150507f3031323334353637383961626364656600000000000000000000000000000000600a86061a8153600a858161272b5761272a614590565b5b049450600085036126e2575b819350505050919050565b606060008203612789576040518060400160405280600181526020017f300000000000000000000000000000000000000000000000000000000000000081525090506128c5565b600082905060005b600082146127bb5780806127a490613c96565b915050600a826127b491906145bf565b9150612791565b60008167ffffffffffffffff8111156127d7576127d66134b7565b5b6040519080825280601f01601f1916602001820160405280156128095781602001600182028036833780820191505090505b50905060008290505b600086146128bd5760018161282791906145f0565b90506000600a808861283991906145bf565b6128439190614624565b8761284e91906145f0565b603061285a9190614673565b905060008160f81b90508084848151811061287857612877614028565b5b60200101907effffffffffffffffffffffffffffffffffffffffffffffffffffffffffffff1916908160001a905350600a886128b491906145bf565b97505050612812565b819450505050505b919050565b60606000602a67ffffffffffffffff8111156128e9576128e86134b7565b5b6040519080825280601f01601f19166020018201604052801561291b5781602001600182028036833780820191505090505b5090507f30000000000000000000000000000000000000000000000000000000000000008160008151811061295357612952614028565b5b60200101907effffffffffffffffffffffffffffffffffffffffffffffffffffffffffffff1916908160001a9053507f7800000000000000000000000000000000000000000000000000000000000000816001815181106129b7576129b6614028565b5b60200101907effffffffffffffffffffffffffffffffffffffffffffffffffffffffffffff1916908160001a90535060005b6014811015612b51576000816013612a0191906145f0565b6008612a0d9190614624565b6002612a1991906147db565b8573ffffffffffffffffffffffffffffffffffffffff16612a3a91906145bf565b60f81b9050600060108260f81c612a519190614826565b60f81b905060008160f81c6010612a689190614857565b8360f81c612a769190614894565b60f81b9050612a8482612f74565b856002866002612a949190614624565b612a9e91906148c9565b81518110612aaf57612aae614028565b5b60200101907effffffffffffffffffffffffffffffffffffffffffffffffffffffffffffff1916908160001a905350612ae781612f74565b856003866002612af79190614624565b612b0191906148c9565b81518110612b1257612b11614028565b5b60200101907effffffffffffffffffffffffffffffffffffffffffffffffffffffffffffff1916908160001a90535050505080806001019150506129e9565b5080915050919050565b60006002600083815260200190815260200160002060009054906101000a900473ffffffffffffffffffffffffffffffffffffffff169050919050565b8080612bd15750600073ffffffffffffffffffffffffffffffffffffffff168273ffffffffffffffffffffffffffffffffffffffff1614155b15612d05576000612be184611f4b565b9050600073ffffffffffffffffffffffffffffffffffffffff168373ffffffffffffffffffffffffffffffffffffffff1614158015612c4c57508273ffffffffffffffffffffffffffffffffffffffff168173ffffffffffffffffffffffffffffffffffffffff1614155b8015612c5f5750612c5d8184611a86565b155b15612ca157826040517fa9fbf51f000000000000000000000000000000000000000000000000000000008152600401612c989190613310565b60405180910390fd5b8115612d0357838573ffffffffffffffffffffffffffffffffffffffff168273ffffffffffffffffffffffffffffffffffffffff167f8c5be1e5ebec7d5bd14f71427d1e84f3dd0314c0f7b2291e5b200ac8c7c3b92560405160405180910390a45b505b836004600085815260200190815260200160002060006101000a81548173ffffffffffffffffffffffffffffffffffffffff021916908373ffffffffffffffffffffffffffffffffffffffff16021790555050505050565b612d68838383612fba565b612e1c57600073ffffffffffffffffffffffffffffffffffffffff168373ffffffffffffffffffffffffffffffffffffffff1603612ddd57806040517f7e273289000000000000000000000000000000000000000000000000000000008152600401612dd49190613426565b60405180910390fd5b81816040517f177e802f000000000000000000000000000000000000000000000000000000008152600401612e139291906148fd565b60405180910390fd5b505050565b600080600090507a184f03e93ff9f4daa797ed6e38ed64bf6a1f0100000000000000008310612e7f577a184f03e93ff9f4daa797ed6e38ed64bf6a1f0100000000000000008381612e7557612e74614590565b5b0492506040810190505b6d04ee2d6d415b85acef81000000008310612ebc576d04ee2d6d415b85acef81000000008381612eb257612eb1614590565b5b0492506020810190505b662386f26fc100008310612eeb57662386f26fc100008381612ee157612ee0614590565b5b0492506010810190505b6305f5e1008310612f14576305f5e1008381612f0a57612f09614590565b5b0492506008810190505b6127108310612f39576127108381612f2f57612f2e614590565b5b0492506004810190505b60648310612f5c5760648381612f5257612f51614590565b5b0492506002810190505b600a8310612f6b576001810190505b80915050919050565b6000600a8260f81c60ff161015612f9f5760308260f81c612f959190614673565b60f81b9050612fb5565b60578260f81c612faf9190614673565b60f81b90505b919050565b60008073ffffffffffffffffffffffffffffffffffffffff168373ffffffffffffffffffffffffffffffffffffffff161415801561307257508273ffffffffffffffffffffffffffffffffffffffff168473ffffffffffffffffffffffffffffffffffffffff16148061303357506130328484611a86565b5b8061307157508273ffffffffffffffffffffffffffffffffffffffff1661305983611fd3565b73ffffffffffffffffffffffffffffffffffffffff16145b5b90509392505050565b60405180610160016040528060008152602001606081526020016000815260200160008152602001600081526020016060815260200160608152602001606081526020016060815260200160608152602001600073ffffffffffffffffffffffffffffffffffffffff1681525090565b6000604051905090565b600080fd5b600080fd5b60007fffffffff0000000000000000000000000000000000000000000000000000000082169050919050565b613134816130ff565b811461313f57600080fd5b50565b6000813590506131518161312b565b92915050565b60006020828403121561316d5761316c6130f5565b5b600061317b84828501613142565b91505092915050565b60008115159050919050565b61319981613184565b82525050565b60006020820190506131b46000830184613190565b92915050565b600081519050919050565b600082825260208201905092915050565b60005b838110156131f45780820151818401526020810190506131d9565b60008484015250505050565b6000601f19601f8301169050919050565b600061321c826131ba565b61322681856131c5565b93506132368185602086016131d6565b61323f81613200565b840191505092915050565b600060208201905081810360008301526132648184613211565b905092915050565b6000819050919050565b61327f8161326c565b811461328a57600080fd5b50565b60008135905061329c81613276565b92915050565b6000602082840312156132b8576132b76130f5565b5b60006132c68482850161328d565b91505092915050565b600073ffffffffffffffffffffffffffffffffffffffff82169050919050565b60006132fa826132cf565b9050919050565b61330a816132ef565b82525050565b60006020820190506133256000830184613301565b92915050565b613334816132ef565b811461333f57600080fd5b50565b6000813590506133518161332b565b92915050565b6000806040838503121561336e5761336d6130f5565b5b600061337c85828601613342565b925050602061338d8582860161328d565b9150509250929050565b6000806000606084860312156133b0576133af6130f5565b5b60006133be86828701613342565b93505060206133cf86828701613342565b92505060406133e08682870161328d565b9150509250925092565b600060208284031215613400576133ff6130f5565b5b600061340e84828501613342565b91505092915050565b6134208161326c565b82525050565b600060208201905061343b6000830184613417565b92915050565b61344a81613184565b811461345557600080fd5b50565b60008135905061346781613441565b92915050565b60008060408385031215613484576134836130f5565b5b600061349285828601613342565b92505060206134a385828601613458565b9150509250929050565b600080fd5b600080fd5b7f4e487b7100000000000000000000000000000000000000000000000000000000600052604160045260246000fd5b6134ef82613200565b810181811067ffffffffffffffff8211171561350e5761350d6134b7565b5b80604052505050565b60006135216130eb565b905061352d82826134e6565b919050565b600067ffffffffffffffff82111561354d5761354c6134b7565b5b61355682613200565b9050602081019050919050565b82818337600083830152505050565b600061358561358084613532565b613517565b9050828152602081018484840111156135a1576135a06134b2565b5b6135ac848285613563565b509392505050565b600082601f8301126135c9576135c86134ad565b5b81356135d9848260208601613572565b91505092915050565b600080600080608085870312156135fc576135fb6130f5565b5b600061360a87828801613342565b945050602061361b87828801613342565b935050604061362c8782880161328d565b925050606085013567ffffffffffffffff81111561364d5761364c6130fa565b5b613659878288016135b4565b91505092959194509250565b60006101608201905061367b600083018e613417565b818103602083015261368d818d613211565b905061369c604083018c613417565b6136a9606083018b613417565b6136b6608083018a613417565b81810360a08301526136c88189613211565b905081810360c08301526136dc8188613211565b905081810360e08301526136f08187613211565b90508181036101008301526137058186613211565b905081810361012083015261371a8185613211565b905061372a610140830184613301565b9c9b505050505050505050505050565b600067ffffffffffffffff821115613755576137546134b7565b5b61375e82613200565b9050602081019050919050565b600061377e6137798461373a565b613517565b90508281526020810184848401111561379a576137996134b2565b5b6137a5848285613563565b509392505050565b600082601f8301126137c2576137c16134ad565b5b81356137d284826020860161376b565b91505092915050565b6000806000806000806000806000806101408b8d0312156137ff576137fe6130f5565b5b600061380d8d828e01613342565b9a505060208b013567ffffffffffffffff81111561382e5761382d6130fa565b5b61383a8d828e016137ad565b995050604061384b8d828e0161328d565b985050606061385c8d828e0161328d565b975050608061386d8d828e0161328d565b96505060a08b013567ffffffffffffffff81111561388e5761388d6130fa565b5b61389a8d828e016137ad565b95505060c08b013567ffffffffffffffff8111156138bb576138ba6130fa565b5b6138c78d828e016137ad565b94505060e08b013567ffffffffffffffff8111156138e8576138e76130fa565b5b6138f48d828e016137ad565b9350506101008b013567ffffffffffffffff811115613916576139156130fa565b5b6139228d828e016137ad565b9250506101208b013567ffffffffffffffff811115613944576139436130fa565b5b6139508d828e016137ad565b9150509295989b9194979a5092959850565b61396b8161326c565b82525050565b600082825260208201905092915050565b600061398d826131ba565b6139978185613971565b93506139a78185602086016131d6565b6139b081613200565b840191505092915050565b6139c4816132ef565b82525050565b6000610160830160008301516139e36000860182613962565b50602083015184820360208601526139fb8282613982565b9150506040830151613a106040860182613962565b506060830151613a236060860182613962565b506080830151613a366080860182613962565b5060a083015184820360a0860152613a4e8282613982565b91505060c083015184820360c0860152613a688282613982565b91505060e083015184820360e0860152613a828282613982565b915050610100830151848203610100860152613a9e8282613982565b915050610120830151848203610120860152613aba8282613982565b915050610140830151613ad16101408601826139bb565b508091505092915050565b60006020820190508181036000830152613af681846139ca565b905092915050565b60008060408385031215613b1557613b146130f5565b5b6000613b2385828601613342565b9250506020613b3485828601613342565b9150509250929050565b7f4e487b7100000000000000000000000000000000000000000000000000000000600052602260045260246000fd5b60006002820490506001821680613b8557607f821691505b602082108103613b9857613b97613b3e565b5b50919050565b6000606082019050613bb36000830186613301565b613bc06020830185613417565b613bcd6040830184613301565b949350505050565b7f5468697320746f6b656e20697320736f756c2d626f756e6420616e642063616e60008201527f6e6f74206265207472616e736665727265642e00000000000000000000000000602082015250565b6000613c316033836131c5565b9150613c3c82613bd5565b604082019050919050565b60006020820190508181036000830152613c6081613c24565b9050919050565b7f4e487b7100000000000000000000000000000000000000000000000000000000600052601160045260246000fd5b6000613ca18261326c565b91507fffffffffffffffffffffffffffffffffffffffffffffffffffffffffffffffff8203613cd357613cd2613c67565b5b600182019050919050565b60008190508160005260206000209050919050565b60006020601f8301049050919050565b600082821b905092915050565b600060088302613d407fffffffffffffffffffffffffffffffffffffffffffffffffffffffffffffffff82613d03565b613d4a8683613d03565b95508019841693508086168417925050509392505050565b6000819050919050565b6000613d87613d82613d7d8461326c565b613d62565b61326c565b9050919050565b6000819050919050565b613da183613d6c565b613db5613dad82613d8e565b848454613d10565b825550505050565b600090565b613dca613dbd565b613dd5818484613d98565b505050565b5b81811015613df957613dee600082613dc2565b600181019050613ddb565b5050565b601f821115613e3e57613e0f81613cde565b613e1884613cf3565b81016020851015613e27578190505b613e3b613e3385613cf3565b830182613dda565b50505b505050565b600082821c905092915050565b6000613e6160001984600802613e43565b1980831691505092915050565b6000613e7a8383613e50565b9150826002028217905092915050565b613e93826131ba565b67ffffffffffffffff811115613eac57613eab6134b7565b5b613eb68254613b6d565b613ec1828285613dfd565b600060209050601f831160018114613ef45760008415613ee2578287015190505b613eec8582613e6e565b865550613f54565b601f198416613f0286613cde565b60005b82811015613f2a57848901518255600182019150602085019450602081019050613f05565b86831015613f475784890151613f43601f891682613e50565b8355505b6001600288020188555050505b505050505050565b600081905092915050565b6000613f72826131ba565b613f7c8185613f5c565b9350613f8c8185602086016131d6565b80840191505092915050565b6000613fa48285613f67565b9150613fb08284613f67565b91508190509392505050565b7f4661726d657220646f6573206e6f742065786973740000000000000000000000600082015250565b6000613ff26015836131c5565b9150613ffd82613fbc565b602082019050919050565b6000602082019050818103600083015261402181613fe5565b9050919050565b7f4e487b7100000000000000000000000000000000000000000000000000000000600052603260045260246000fd5b7f4661726d65722049443a20000000000000000000000000000000000000000000600082015250565b600061408d600b83613f5c565b915061409882614057565b600b82019050919050565b7f2c205375627369647920547970653a2000000000000000000000000000000000600082015250565b60006140d9601083613f5c565b91506140e4826140a3565b601082019050919050565b7f2c205375627369647920416d6f756e743a200000000000000000000000000000600082015250565b6000614125601283613f5c565b9150614130826140ef565b601282019050919050565b7f2c20497373756520446174653a20000000000000000000000000000000000000600082015250565b6000614171600e83613f5c565b915061417c8261413b565b600e82019050919050565b7f2c2056616c696469747920506572696f643a2000000000000000000000000000600082015250565b60006141bd601383613f5c565b91506141c882614187565b601382019050919050565b7f2c20476f7665726e6d656e7420417070726f76616c2049443a20000000000000600082015250565b6000614209601a83613f5c565b9150614214826141d3565b601a82019050919050565b7f2c205573616765205374617475733a2000000000000000000000000000000000600082015250565b6000614255601083613f5c565b91506142608261421f565b601082019050919050565b7f2c204661726d6572205369676e61747572653a20000000000000000000000000600082015250565b60006142a1601483613f5c565b91506142ac8261426b565b601482019050919050565b7f2c20476f7665726e6d656e74205369676e61747572653a200000000000000000600082015250565b60006142ed601883613f5c565b91506142f8826142b7565b601882019050919050565b7f2c204c6f636174696f6e3a200000000000000000000000000000000000000000600082015250565b6000614339600c83613f5c565b915061434482614303565b600c82019050919050565b7f2c204f776e65723a200000000000000000000000000000000000000000000000600082015250565b6000614385600983613f5c565b91506143908261434f565b600982019050919050565b60006143a682614080565b91506143b2828e613f67565b91506143bd826140cc565b91506143c9828d613f67565b91506143d482614118565b91506143e0828c613f67565b91506143eb82614164565b91506143f7828b613f67565b9150614402826141b0565b915061440e828a613f67565b9150614419826141fc565b91506144258289613f67565b915061443082614248565b915061443c8288613f67565b915061444782614294565b91506144538287613f67565b915061445e826142e0565b915061446a8286613f67565b91506144758261432c565b91506144818285613f67565b915061448c82614378565b91506144988284613f67565b91508190509c9b505050505050505050505050565b600081519050919050565b600082825260208201905092915050565b60006144d4826144ad565b6144de81856144b8565b93506144ee8185602086016131d6565b6144f781613200565b840191505092915050565b60006080820190506145176000830187613301565b6145246020830186613301565b6145316040830185613417565b818103606083015261454381846144c9565b905095945050505050565b60008151905061455d8161312b565b92915050565b600060208284031215614579576145786130f5565b5b60006145878482850161454e565b91505092915050565b7f4e487b7100000000000000000000000000000000000000000000000000000000600052601260045260246000fd5b60006145ca8261326c565b91506145d58361326c565b9250826145e5576145e4614590565b5b828204905092915050565b60006145fb8261326c565b91506146068361326c565b925082820390508181111561461e5761461d613c67565b5b92915050565b600061462f8261326c565b915061463a8361326c565b92508282026146488161326c565b9150828204841483151761465f5761465e613c67565b5b5092915050565b600060ff82169050919050565b600061467e82614666565b915061468983614666565b9250828201905060ff8111156146a2576146a1613c67565b5b92915050565b60008160011c9050919050565b6000808291508390505b60018511156146ff578086048111156146db576146da613c67565b5b60018516156146ea5780820291505b80810290506146f8856146a8565b94506146bf565b94509492505050565b60008261471857600190506147d4565b8161472657600090506147d4565b816001811461473c576002811461474657614775565b60019150506147d4565b60ff84111561475857614757613c67565b5b8360020a91508482111561476f5761476e613c67565b5b506147d4565b5060208310610133831016604e8410600b84101617156147aa5782820a9050838111156147a5576147a4613c67565b5b6147d4565b6147b784848460016146b5565b925090508184048111156147ce576147cd613c67565b5b81810290505b9392505050565b60006147e68261326c565b91506147f18361326c565b925061481e7fffffffffffffffffffffffffffffffffffffffffffffffffffffffffffffffff8484614708565b905092915050565b600061483182614666565b915061483c83614666565b92508261484c5761484b614590565b5b828204905092915050565b600061486282614666565b915061486d83614666565b925082820261487b81614666565b915080821461488d5761488c613c67565b5b5092915050565b600061489f82614666565b91506148aa83614666565b9250828203905060ff8111156148c3576148c2613c67565b5b92915050565b60006148d48261326c565b91506148df8361326c565b92508282019050808211156148f7576148f6613c67565b5b92915050565b60006040820190506149126000830185613301565b61491f6020830184613417565b939250505056fea2646970667358221220be89e549cd091d2382dfc37fa02b836d9fdaf8842b61c38df0a001f9aca05c5164736f6c634300081b0033",
  "linkReferences": {},
  "deployedLinkReferences": {}
}